{
  "abi": "[{\"inputs\":[{\"internalType\":\"uint256\",\"name\":\"deadline\",\"type\":\"uint256\"},{\"internalType\":\"bytes[]\",\"name\":\"data\",\"type\":\"bytes[]\"}],\"name\":\"multicall\",\"outputs\":[{\"internalType\":\"bytes[]\",\"name\":\"\",\"type\":\"bytes[]\"}],\"stateMutability\":\"payable\",\"type\":\"function\"},{\"inputs\":[{\"components\":[{\"internalType\":\"address\",\"name\":\"tokenIn\",\"type\":\"address\"},{\"internalType\":\"address\",\"name\":\"tokenOut\",\"type\":\"address\"},{\"internalType\":\"uint24\",\"name\":\"fee\",\"type\":\"uint24\"},{\"internalType\":\"address\",\"name\":\"recipient\",\"type\":\"address\"},{\"internalType\":\"uint256\",\"name\":\"amountIn\",\"type\":\"uint256\"},{\"internalType\":\"uint256\",\"name\":\"amountOutMinimum\",\"type\":\"uint256\"},{\"internalType\":\"uint160\",\"name\":\"sqrtPriceLimitX96\",\"type\":\"uint160\"}],\"internalType\":\"struct IV3SwapRouter.ExactInputSingleParams\",\"name\":\"params\",\"type\":\"tuple\"}],\"name\":\"exactInputSingle\",\"outputs\":[{\"internalType\":\"uint256\",\"name\":\"amountOut\",\"type\":\"uint256\"}],\"stateMutability\":\"payable\",\"type\":\"function\"},{\"inputs\":[{\"components\":[{\"internalType\":\"address\",\"name\":\"tokenIn\",\"type\":\"address\"},{\"internalType\":\"address\",\"name\":\"tokenOut\",\"type\":\"address\"},{\"internalType\":\"uint24\",\"name\":\"fee\",\"type\":\"uint24\"},{\"internalType\":\"address\",\"name\":\"recipient\",\"type\":\"address\"},{\"internalType\":\"uint256\",\"name\":\"amountOut\",\"type\":\"uint256\"},{\"internalType\":\"uint256\",\"name\":\"amountInMaximum\",\"type\":\"uint256\"},{\"internalType\":\"uint160\",\"name\":\"sqrtPriceLimitX96\",\"type\":\"uint160\"}],\"internalType\":\"struct IV3SwapRouter.ExactOutputSingleParams\",\"name\":\"params\",\"type\":\"tuple\"}],\"name\":\"exactOutputSingle\",\"outputs\":[{\"internalType\":\"uint256\",\"name\":\"amountIn\",\"type\":\"uint256\"}],\"stateMutability\":\"payable\",\"type\":\"function\"}]",
  "functionName": "multicall",
  "contractAddress": "0x68b3465833fb72A70ecDF485E0e4C7bD8665Fc45",
  "overrides": {
    "to": "0x68b3465833fb72A70ecDF485E0e4C7bD8665Fc45",
    "from": "0xBd93a2DFdcCe353DCC12Fe42bC2b52fD6B3c044F",
    "data": "0x5ae401dc00000000000000000000000000000000000000000000000000000000649eb4bf00000000000000000000000000000000000000000000000000000000000000400000000000000000000000000000000000000000000000000000000000000001000000000000000000000000000000000000000000000000000000000000002000000000000000000000000000000000000000000000000000000000000000e404e45aaf0000000000000000000000000e2ebcbf5b360b492e6984665cd02c847acc487800000000000000000000000069fe941ee6c9aa317abe776b005e43a332db2ffb0000000000000000000000000000000000000000000000000000000000002710000000000000000000000000bd93a2dfdcce353dcc12fe42bc2b52fd6b3c044f0000000000000000000000000000000000000000000000000de0b6b3a76400000000000000000000000000000000000000000000000000000000000000000000000000000000000000000000000000000000000000000000000000000000000000000000000000000000000000000000000000000000000000000000",
    "value": "0x00"
  },
  "decodedInput": "[{\"type\":\"BigNumber\",\"hex\":\"0x649eb4bf\"},[\"0x04e45aaf0000000000000000000000000e2ebcbf5b360b492e6984665cd02c847acc487800000000000000000000000069fe941ee6c9aa317abe776b005e43a332db2ffb0000000000000000000000000000000000000000000000000000000000002710000000000000000000000000bd93a2dfdcce353dcc12fe42bc2b52fd6b3c044f0000000000000000000000000000000000000000000000000de0b6b3a764000000000000000000000000000000000000000000000000000000000000000000000000000000000000000000000000000000000000000000000000000000000000\"]]"
}